:020000020000FC
:2000000034014000148C40083A6800080000000000000000000000000000000000000000D9
:2000200004EDFFDE1500C0DF150240D8150380D81504C0D8150500D9150640D9150780D952
:200040001508C0D97A300B00150900DA150A40DA150B80DA150CC0DA150D00DB150E40DB94
:20006000150F80DB1510C0DB151140D904FFFFEB1512C0DB3A3109004C00802826030010B2
:2000800026020020C00F400006070000151240DF17FFBFE804FF3FE9001D40001E02001041
:2000A00004FFFFEB1512C0DB171140D9171240DF1700C0DF7A700128170240D8170380D89C
:2000C0001704C0D8170500D9170640D9170780D91708C0D9170900DA170A40DA170B80DA62
:2000E000170CC0DA170D00DB170E40DB170F80DB1710C0DB0413C0DE3A0880EF04F9FFDE81
:200100001506C0DF150500DF040500DF3A8801003A31050015FEBFE017FEBFE015FBBFE0FC
:2001200015FD3FE04400800015FCBFE017FBFFE017FCBFE03A708418261400103401800032
:2001400004A2961017FDFFE0FA9006183A88C5101700C0103401800004A2961017FD3FE105
:20016000FA9008203A88051104018010170080103A8809103AE83E183A8801003A31050033
:2001800015FFBFE017FFBFE00607000017FCBFE03A88851015FCBFE017FDBFE044008010AA
:2001A00015FDBFE006E13F0015FBBFE017FBBFE01EDB3F103A8801003A8801003A8837E061
:2001C0001701C0DF170000DF0402C0DE3A2800F804FBFFDE1504C0DF150300DF040300DF03
:2001E00015FF3FE1C4FFBF0015FDBFE015FE3FE017DAA5D02607001017DAA5D017FDFFE06A
:2002000017FEBFE117FF7FE13A8809183AE83E10060200003AA03D003A8805003A8837E0A1
:200220001701C0DF170000DF0402C0DE3A2800F87401C0061400C0DE3401800614C6B0D60B
:2002400034018000149996103401C00014E2D6182603C010150000100401801036FDFF10C8
:20026000405D40008065400006FF3F0004FEFFDE1501C0DF150000DF3A8839D874FE3F022A
:2002800004FE3D423A8837DA74018000040B84101500001074018000040B84104400C000B1
:2002A0001500C01074FEBF0004FEBD103A88051715000010066900001700E0D074FE3F016E
:2002C00004FE3D213A880927170080203A8885103A8885103A8885181700C01017D325D141
:2002E00074FE7F0104FE7D293A880B2F170080283A8885103A8885103A88852017008010ED
:200300003AC8871874FE3F0104FE3D213A880927170080203A8885103A88851074FE7F01E1
:2003200004FE7D293A880B2F3A888528040280101500C01074FEFF0004FEFD183A88071FBF
:20034000170080183A8885103A88851074FE3F0104FE3D213A8809273A888520040280103F
:200360001700C01074FE7F0104FE7D293A880B2F170080283A8885103A88851074FE3F01E1
:2003800004FE3D213A8809273A88852004028010170080103A880B103A88091840544000D3
:2003A0003A880910340180000402A11074FE7F0104FE7D293A880B2F3A88872874FE7F01FD
:2003C00004FE7D293A880B2F170080283A8885103A8885103A888518150000111701E0D0BF
:2003E00074FE3F0104FE3D213A880927170080203A8885103A8885103A888718340180007E
:200400000402A11074FE7F0104FE7D293A880B2F3A88892874FE7F0104FE7D293A880B2F86
:20042000170080283A8885103A8885103A888520170080101500801874FEFF0004FEFD180C
:200440003A88071F170080184400801074FE3F0104FE3D213A8809271500802074FE7F0186
:2004600004FE7D293A880B2F17008028D43FF8000E91BF1874018000040B84108400C000BC
:200480001500C01074018000040084101500001074FEBF0004FFBD103A88051715000010C1
:2004A000061C00007401800004048410170120D174FE7F0104FF7D293A880B2F1700C028EA
:2004C0003A88C7183A88C7183A88C7201700C0181500C01074018000040084104400C000CC
:2004E0001500C01074018000040084101500001074FEFF0004FFFD183A88071F1700801845
:200500004400801074FE3F0104FF3D213A8809271500802074FE7F0104FF7D293A880B2FB6
:2005200017008028D43FF8000EDEBF183A8805003A8837E01701C0DF170000DF0402C0DE3D
:200540003A2800F83A880500260700204C00C0207AD00820260100183A8845113A884B2902
:200560001EFA3F203A2800F83A2800F804FCFFDE150300DF040300DF15FD3FE115FE7FE1F1
:2005800015FFBFE117FEFFE017FDBFE0260C80180608000017FEBFE00401C01015FEFFE0AD
:2005A00017FDFFE00401001915FD3FE11700C0181500C01017FEFFE017FFBFE01EF5BF1891
:2005C0003A8801003A8837E0170000DF0401C0DE3A2800F804FEFFDE1501C0DF150000DF04
:2005E0003A8839D83401800104E590313401400104314B293401000104E51021C056400003
:2006000034018001048C803134014001040840293401000104080021C05640003401800189
:2006200004318B313401400104224B293401000104220B21C0564000008C4100C0B241005B
:200640003A8801003A8837E01701C0DF170000DF0402C0DE3A2800F804FDFFDE1502C0DFBF
:20066000150100DF040100DF3A880900807040003A880100007440003401800104228B3197
:200680003401400104224B293401000104220B2100ED4100C09E4100340100010493062101
:2006A0004071420017D4A5D017D5E5D017D625D13A880D203A880B183A880910C02640008E
:2006C00015FFBFE044000001807E410017FF3FE18072420004FDFFDE1502C0DF150100DFF0
:2006E000040100DF15FF3FE1041660D117FF3FE1809441003A8837E01701C0DF170000DF86
:200700000402C0DE3A2800F804FDFFDE1502C0DF150100DF040100DF15FF3FE1803F420039
:20072000440080003A7001103A8801003A8837E01701C0DF170000DF0402C0DE3A2800F8F3
:2007400004FEFFDE1501C0DF150000DF3A8839D8040280013A880B0034010001043B0B2149
:20076000808F40003401000104310B21406D40003401000104490F21C0AA41003A88010085
:200780003A8837E01701C0DF170000DF0402C0DE3A2800F804FAFFDE1505C0DF150400DF49
:2007A000040400DF15FD3FE115FE7FE115FFBFE117FDBFE01700801015FCBFE017FCBFE03D
:2007C000040AC01017FDBFE0170280103A880F1017FFBFE117FE7FE13A880918C0DB400015
:2007E0003A8837E01701C0DF170000DF0402C0DE3A2800F804FAFFDE1505C0DF150400DFE9
:20080000040400DF15FD3FE115FE7FE115FFBFE117FDBFE01700801015FCBFE017FCBFE0DC
:20082000040AC01017FDBFE0170280103A880F1017FFBFE117FE7FE13A88091880FD4000D2
:200840003A8837E01701C0DF170000DF0402C0DE3A2800F804FCFFDE1503C0DF150200DF8A
:20086000040200DF15FF3FE117FFBFE01700801015FEBFE017FEBFE0040AC01017FFBFE00A
:20088000170280103A880B103A88091840C640003A8837E01701C0DF170000DF0402C0DE7F
:2008A0003A2800F804FAFFDE1505C0DF150400DF040400DF15FD3FE115FE7FE115FFBFE112
:2008C00017FDBFE01700801015FCBFE017FCBFE0040A801017FFBFE117FE7FE13A880910B8
:2008E000C0CC40003A8837E01701C0DF170000DF0402C0DE3A2800F804FAFFDE1505C0DF14
:20090000150400DF040400DF15FD3FE115FE7FE115FFBFE117FDBFE04400C0001508C010FB
:2009200017FDBFE017008010040180103A88071017FDBFE0170880103500801817FEBFE00C
:2009400017FFFFE0150000D817FDFFE134018001046E82313A880B183A880910C0B4410071
:2009600017FDBFE01509001017FDBFE00402801017D8E5D017FDFFE13401800104F1823157
:200980003A880B183A880910006841000E04001017FDFFE03400A000C4FFBF1015018018C5
:2009A0003A8801003A8837E01701C0DF170000DF0402C0DE3A2800F804F8FFDE150700DF1C
:2009C000040700DF15FF3FE117FFBFE015FBBFE017FBBFE01700801015FCBFE017FCBFE0DB
:2009E000040180103700801015FDBFE017FDBFE00CC08010266D001017FDBFE00C408010A9
:200A0000263500107400800015F9BFE017FBBFE0170A801044008010CCFF811015FEBFE086
:200A200017FBBFE0170BC01017FEBFE02615801817FCBFE03700801015F9BFE017F9BFE0B7
:200A40000C00A0102611001017FBBFE0170A801017F9FFE03A88091817FBFFE03A8885180F
:200A6000040E80100500001117FBBFE0170A801044008010CCFFC11017FBBFE0150AC0104C
:200A800006E23F003A880100060100003A88010017F9BFE0ECFFBF10260F001017FBBFE043
:200AA0001708C01084FFBF003A70861817FBBFE01508C01017FCBFE0040180103A880710FF
:200AC00017FBBFE0170880103500801817FCBFE0040180103700801017FDBFE00C8080100C
:200AE00026BE3F1017FDBFE03AD4041015FABFE00614000017FCBFE017FBFFE0170DC01887
:200B000017FB3FE13A88C720040EC2180300C018CC3FC0181C20C01804E0FF183500C0103C
:200B200017FBBFE0170D801044008010CCFFC11017FBBFE0150DC01017FABFE0C4FFBF10FB
:200B400015FABFE017FABFE02605001017FBBFE0170DC01017FBBFE0170C80101EE5BF1819
:200B600017FABFE0269D3F1017FBBFE01708C01044FFBF003A70861817FBBFE01508C0102B
:200B800017FBBFE017008010040180103A88071017FBBFE0170880103500801817FCBFE0B0
:200BA0000401801037008010068C3F003A8801003A8801003A8837E0170000DF0401C0DE10
:200BC0003A2800F804F8FFDE150700DF040700DF15FB3FE117FBBFE015F9BFE017F9BFE0C0
:200BE00017008010040180103700801015FABFE017FABFE00C008110260B001017F9BFE007
:200C000017008010040180103A88071017F9BFE017088010140081103500801817F9BFE040
:200C200015090010060A000017F9BFE01709C0103400A00004FFBF103605C01017F9BFE077
:200C4000170980104400C01017F9BFE01509C01017D8A5D03A8837E0170000DF0401C0DE5D
:200C60003A2800F804FDFFDE150200DF040200DF15FE3FE115FF7FE10605000017FFBFE0FA
:200C80000C0090102602001044FDBF00060B000017FEBFE0170DC01017FEBFE0170C801050
:200CA0002605801817FEBFE01709C01017FEBFE01701801036F1BF183A8805003A8837E0D3
:200CC000170000DF0401C0DE3A2800F804FAFFDE150500DF040500DF15FD3FE115FE7FE1C0
:200CE00015FFBFE1C4F9BF0015FBBFE017FEBFE06080DA101E030018A0809A101E1800104E
:200D00000629000017FDBFE01701C0103400A000C4FFBF102621801817FFBFE01700801068
:200D200015FCBFE017FCBFE0900080101E06001017FCFFE03400A000C4FFBF1026028018E5
:200D400017FCBFE0060200003400A00084FFBF1017FDFFE01501801815FB3FE0060F0000CE
:200D600017FDBFE01701C0103400A000C4FFBF10260C801817FDBFE01709C01017FDBFE052
:200D8000170180103A808518CC3FC01017FFBFE01500C01015FB3FE0060200003A880100E5
:200DA000060100003A88010017FBBFE03A8837E0170000DF0401C0DE3A2800F804F3FFDE18
:200DC000150CC0DF150B00DF040B00DF15FC3FE115FD7FE115FEBFE115FFFFE117FDBFE069
:200DE00015F5BFE00647000017FCBFE0170A801015F7BFE017FCBFE0170B801015F8BFE0DF
:200E000017F7FFE017F8BFE03605801817F7FFE017F8BFE03AC8851815F6BFE00604000076
:200E20000400C20017F8BFE03AC8851815F6BFE017F6BFE0261E001017FEFFE017F6BFE055
:200E40002E02801817FEBFE015F6BFE017FCBFE0040EC01017F8BFE03A88851817F6BFE11E
:200E60003A880B1017F53FE1C07D420017F5FFE017F6BFE03A88851815F5BFE017FEFFE057
:200E800017F6BFE03AC8851815FEBFE017F8FFE017F6BFE03A888518CCFFC11017FCBFE00E
:200EA000150BC01017FEBFE016CFBF00060100003A88010017F5FFE017FDBFE01E148018B8
:200EC00017FFBFE00C0090101E1300103A88010017FCBFE0170AC01017F7BFE01E058018A2
:200EE00017FCBFE01709C01017FCBFE01701801036F7BF1817FCBFE0170AC01017F7BFE0A2
:200F00002607801817FEBFE016B7BF00060500003A880100060300003A880100060100002B
:200F20003A88010017F5FFE017FDBFE0261880183A30050015FBBFE017FBFFE084FFBF0029
:200F40003A7084183A70011017FBBFE015FABFE017FCBFE0170880105400C01017FCBFE0FA
:200F60001508C01017FCBFE017008010040180103A88071017FCBFE017088010350080188F
:200F800017FABFE015F9BFE017F9BFE03A70011017F5FFE017FDBFE02604801817F5FFE03F
:200FA00017FDBFE03AC885180606000017FFBFE00C0090102602001044FDBF000601000033
:200FC000C4FEBF003A8837E01701C0DF170000DF0402C0DE3A2800F804F3FFDE150CC0DF78
:200FE000150B00DF040B00DF15FC3FE115FD7FE115FEBFE115FFFFE115F53FE017FDBFE0DE
:2010000015F7BFE00637000017FCBFE0170C801015F9BFE017FCBFE0170D801015F5BFE0C7
:2010200017F9FFE017F5BFE02E06801817F5FFE017F9BFE03AC88518C4FFBF1015F6BFE0D5
:20104000060B000017F5BFE0260500100400C20017F9BFE03AC8851815F6BFE006040000D1
:20106000C4FFC10017F9BFE03AC8851815F6BFE017F6BFE0261E001017FEFFE017F6BFE054
:201080002E02801817FEBFE015F6BFE017FCBFE0040EC21017F9BFE03A88851817F6BFE1D9
:2010A00017FD7FE13A880910C07D420017FDFFE017F6BFE03A88851815FDBFE017FEFFE0BF
:2010C00017F6BFE03AC8851815FEBFE017F9FFE017F6BFE03A888518CCFFC11017FCBFE0CB
:2010E000150CC01017FEBFE016C7BF00060100003A8801003A30050015FBBFE017FBFFE0D6
:2011000084FFBF003A7084183A70011017FBBFE015FABFE017FCBFE0170880109400C01068
:2011200017FCBFE01508C01017FCBFE017008010040180103A88071017FCBFE017088010E8
:201140003500801817FABFE015F8BFE017F8BFE03A70011017FEBFE00E10800017FFBFE0F6
:201160000C0090101E1000103A88010017FCBFE0170DC01017F5BFE01E05801817FCBFE004
:201180001709C01017FCBFE01701801036F7BF1817FCBFE0170980101E05001017FEBFE0B8
:2011A00016D0BF00060300003A880100060100003A88010017FDFFE017F7BFE02604801892
:2011C00017FDFFE017F7BFE03AC885180606000017FFBFE00C0090102602001044FDBF002B
:2011E00006010000C4FEBF003A8837E01701C0DF170000DF0402C0DE3A2800F804F4FFDE0E
:20120000150B00DF040B00DF15FC3FE115FD7FE115FEBFE115FFFFE117FCBFE0170080103E
:2012200015F5BFE017F5BFE01702801015F6BFE017F6BFE0C4FFBF1015FBBFE017FBBFE069
:201240004400801015FBBFE017FBBFE003008010CC3F80101C20801004E0BF101EF73F1049
:2012600017FBFFE017F6BFE03AC88518440080103A88071017FDBFE03A88C51015FDBFE08A
:201280000402A0D03A88071017FDBFE03A88091017FE7FE117FFBFE117FDBFE015F9BFE0E6
:2012A00017F9BFE0C4FFBF1015FABFE017FABFE04400801015FABFE017FABFE003008010CA
:2012C000CC3F80101C20801004E0BF101EF73F1017FAFFE117F9BFE03AC885383A880F1050
:2012E0007AA03D0015F7BFE015F8FFE017F8BFE01E03001017FCBFE017F7FFE01501C0109C
:2013000017F8BFE03AC885003A8837E0170000DF0401C0DE3A2800F804FDFFDE150200DFF8
:20132000040200DF15FF3FE10405A0D03A88071017FFBFE0170180103A8809107AA03D00B3
:2013400015FEFFE017FEBFE03AC885003A8837E0170000DF0401C0DE3A2800F804FAFFDEB9
:20136000150500DF040500DF15FD3FE115FE7FE115FFBFE10408A0D03A88071017FDBFE02B
:20138000170180103A88091017FEBFE03A880B1017FFBFE17AA03D0015FBBFE015FCFFE08D
:2013A00017FCBFE02603001017FCBFE03AC885000601000017FBBFE03A8837E0170000DF82
:2013C0000401C0DE3A2800F804FAFFDE150500DF040500DF15FD3FE115FE7FE115FFBFE1FB
:2013E000040BA0D03A88071017FDBFE0170180103A88091017FEBFE03A880B1017FFBFE118
:201400007AA03D0015FBBFE015FCFFE017FCBFE02603001017FCBFE03AC8850006010000AB
:2014200017FBBFE03A8837E0170000DF0401C0DE3A2800F804FAFFDE150500DF040500DF73
:2014400015FD3FE115FE7FE115FFBFE1040EA0D03A88071017FDBFE0170180103A880910A2
:2014600017FE7FE117FFBFE17AA03D0015FBBFE015FCFFE017FCBFE02603001017FCBFE0AE
:201480003AC885000601000017FBBFE03A8837E0170000DF0401C0DE3A2800F804E9FFDE77
:2014A000151600DF041600DF15FE3FE115FF7FE10411A0D03A88071017FEBFE017018010C8
:2014C0003A88091004EEBFE03A880B107AA03D0015EBBFE015ECFFE017ECBFE01E620010BB
:2014E00004EEBFE015EABFE017EABFE00410801015EDBFE00616000017EABFE01700801075
:201500003AD6061017EABFE017008010EC3F80103AD204103AB0861817EABFE017008010B4
:201520000CC0BF103A9204103AB0861817EABFE0170080103A9604103AB0861817EABFE055
:201540001500C01017EABFE00401801015EABFE017EAFFE017EDBFE036E7BF1817FFBFE0A7
:2015600015EABFE017EABFE0040F801015EDBFE00605000017EABFE01500001017EABFE079
:201580000401801015EABFE017EAFFE017EDBFE036F8BF1817EEBFE03A88071017FFBFE05E
:2015A0000D00C01017EFBFE03A88071017FFBFE08D00C01017F0FFE017FFBFE01501C0103D
:2015C00017F1BFE03A88071017FFBFE00D02C01017F2BFE03A88071017FFBFE08D02C01062
:2015E00017F3BFE03A88071017FFBFE00D03C01017F4BFE03A88071017FFBFE08D03C0103C
:2016000017F6BFE03A88071017FFBFE01504C01017FBBFE03A88071017FFBFE01505C0107E
:2016200017FCBFE03A88071017FFBFE01507C01017FDBFE03A88071017FFBFE01509C0104F
:2016400017F8BFE03A88071017FFBFE0150BC01017FABFE03A88071017FFBFE0150CC0102F
:2016600017EBBFE00602000017ECBFE03AC885003A8837E0170000DF0401C0DE3A2800F8CC
:2016800004F5FFDE150A00DF040A00DF15FC3FE115FD7FE115FEBFE115FFFFE115F63FE015
:2016A00017D8A5D0263C001017FCBFE02638001017FCBFE017FEFFE01503C01017FCBFE0F4
:2016C00017FFFFE01505C0103A30050015F9BFE017F9FFE084FFBF003A7084183A700110DD
:2016E00017F9BFE015F8BFE017D9A5D015F6BFE017FDFFE017F6BFE03A8885184400C0106E
:2017000017FCBFE01502C01017FCBFE01702C01017F6BFE02E04801817FCBFE04400C00069
:201720000504C0100602000017FCBFE00504001017FCBFE0041BE0D015FAFFE015FBBFE0DF
:2017400017FBBFE017FAFFE01501C01017FABFE01700C01017FBBFE01500C01017FABFE025
:201760001700801017FBFFE01501C01017FABFE017FBFFE01500C01017F8BFE015F7BFE00C
:2017800017F7BFE03A7001103A8805000603000084FABF000601000084DEBF003A8837E0D3
:2017A000170000DF0401C0DE3A2800F804FEFFDE1501C0DF150000DF3A8839D81719A0D03B
:2017C000260300101719A0D03AE83E100601000004DBA5D03A8837E01701C0DF170000DFDF
:2017E0000402C0DE3A2800F804FBFFDE1504C0DF150300DF040300DF15FF3FE117FFBFE091
:20180000160800100403400117FF3FE1405440003A88071034018000045D8F103A8885185B
:20182000060100003A88050015FDBFE017FDBFE02619001017FDBFE0170080101704801022
:201840002606001017FDBFE0170080101704801017FD3FE13AE83E10060100003A880500D5
:2018600015FEBFE017FF3FE1001D420017FEBFE00E070010C07A41003A88071017FEBFE040
:201880003AC8850015008018C4FFBF00060700003A88050006050000C07A41003A8807105F
:2018A0004414800015008018C4FFBF003A8837E01701C0DF170000DF0402C0DE3A2800F89D
:2018C00004FFFFDE150000DF3A8839D83A8801003A8837E0170000DF0401C0DE3A2800F8D2
:2018E00004FCFFDE150300DF040300DF15FD3FE115FE7FE115FFBFE117FFBFE03A8837E047
:20190000170000DF0401C0DE3A2800F804FEFFDE1501C0DF150000DF3A8839D81719A0D0D9
:20192000260300101719A0D03AE83E100601000004DBA5D03A8837E01701C0DF170000DF7D
:201940000402C0DE3A2800F804FAFFDE1505C0DF150400DF040400DF15FE3FE115FF7FE16F
:2019600017FEBFE02603001017FEBFE0170280101E060010C09041003A8807108405800076
:201980001500801884FABF000613000017FEBFE017FFFFE015FCFFE015FDBFE017FDBFE047
:2019A00017FCFFE01501C01017FCBFE01700C01017FDBFE01500C01017FCBFE017008010C5
:2019C00017FDFFE01501C01017FCBFE017FDFFE01500C0103A8805003A8837E01701C0DF4D
:2019E000170000DF0402C0DE3A2800F804FDFFDE1502C0DF150100DF040100DF34018000D1
:201A000004218B1015FFBFE00606000017FFBFE0170080103AE83E1017FFBFE004FFBF10F4
:201A200015FFBFE017FFFFE03401800004228B102EF6BF183A8801003A8837E01701C0DF3A
:201A4000170000DF0402C0DE3A2800F804FDFFDE1502C0DF150100DF040100DF3401800070
:201A600004218B1015FFBFE00606000017FFBFE0170080103AE83E1017FFBFE004FFBF1094
:201A800015FFBFE017FFFFE03401800004228B102EF6BF183A8801003A8837E01701C0DFDA
:201AA000170000DF0402C0DE3A2800F804FCFFDE150300DF040300DF15FF3FE117FFBFE08F
:201AC000170280101E02001044FBBF000613000017FFBFE00414E0D015FDFFE015FEBFE0F6
:201AE00017FEBFE017FDFFE01501C01017FDBFE01700C01017FEBFE01500C01017FDBFE073
:201B00001700801017FEFFE01501C01017FDBFE017FEFFE01500C0103A8805003A8837E018
:201B2000170000DF0401C0DE3A2800F804FFFFDE150000DF3A8839D83A8801003A8837E06F
:201B4000170000DF0401C0DE3A2800F804F9FFDE1506C0DF150500DF040500DF15FC3FE1EC
:201B600015FD7FE115FEBFE115FFFFE1170280E0150080D817FFFFE117FEBFE117FD7FE147
:201B800017FC3FE1C0CF41003A8837E01701C0DF170000DF0402C0DE3A2800F804F9FFDEE4
:201BA000150600DF040600DF15FE3FE115FF7FE117FFBFE015FABFE03A30050015FBBFE01A
:201BC00017FBFFE084FFBF003A7084183A70011017FBBFE015FCBFE04400C00017FABFE0BC
:201BE0003A9884183A88071017D7A5D03AB0841815D7A5D017D7A5D0FA70011017FCBFE0C4
:201C000015FDBFE017FDBFE03A7001103A8805003A8801003A8837E0170000DF0401C0DEA9
:201C20003A2800F804F9FFDE150600DF040600DF15FE3FE115FF7FE117FFBFE015FABFE083
:201C40003A30050015FBBFE017FBFFE084FFBF003A7084183A70011017FBBFE015FCBFE0D1
:201C60004400C00017FABFE03A9884183A3084003A88071017D7A5D03A70841815D7A5D071
:201C800017D7A5D0FA70011017FCBFE015FDBFE017FDBFE03A7001103A8805003A8801000B
:201CA0003A8837E0170000DF0401C0DE3A2800F804FCFFDE150300DF040300DF15FE3FE16B
:201CC00015FF7FE1FA30050015FDBFE04400C00017FFBFE03A9884183A88071017FDBFE0FD
:201CE0003A7084183AC00410CC3F80103A8837E0170000DF0401C0DE3A2800F804F5FFDE53
:201D0000150AC0DF150900DF040900DF15FC3FE115FD7FE115FEBFE115FFFFE184FABF0095
:201D200015F7BFE017FDBFE015F8BFE017F8BFE0080880101E2700103A30050015FBBFE0D8
:201D400017FBFFE084FFBF003A7084183A70011017FBBFE015FABFE03401800004A29610EF
:201D600017F8FFE0FA9006183A88C51017FEFFE01500C0103401800004A2961017F8FFE06E
:201D8000FA9006183A88C5100401801017FFFFE01500C01017FEBFE02605001017F8BFE0F8
:201DA0003A880B1017FC3FE1C0B941000604000017F8BFE03A880B1017FC3FE140C241004E
:201DC00015F7BFE017FABFE015F9BFE017F9BFE03A70011017F7BFE03A8837E01701C0DF54
:201DE000170000DF0402C0DE3A2800F804F8FFDE1507C0DF150600DF150500DC040600DF82
:201E000015FB3FE115FC7FE115FDBFE115FEFFE117FEBFE117FD7FE117FC3FE14007420097
:201E200015FABFE017FABFE01622001034010004045D0F8417FABFE0040340013A880910FC
:201E4000405440003A8885801700C01017FBBFE01500C01034010004045D0F8417FABFE08D
:201E6000040340013A880910405440003A888580040180101700C01017FBBFE01501C01091
:201E800034010004045D0F8417FABFE0040340013A880910405440003A8885800402801011
:201EA0001700C01017FBBFE01502C01017FA3FE1001D42003A88010004FFFFE61702C0DFB0
:201EC000170100DF170000DC0403C0DE3A2800F804FBFFDE1504C0DF150300DF040300DFA8
:201EE00015FD3FE115FE7FE115FFBFE1C47FC0014400800117FD7FE13401000104600F2182
:201F0000C0DE4100C47FC0013A880D0017FE7FE134010001045D0F21C0DE4100C47FC001F0
:201F20004400800117FF7FE13401000104630F21C0DE41003A8801003A8837E01701C0DF67
:201F4000170000DF0402C0DE3A2800F804FEFFDE1501C0DF150000DF3A8839D81719A0D092
:201F6000260300101719A0D03AE83E100601000004DBA5D03A8837E01701C0DF170000DF37
:201F80000402C0DE3A2800F804FBFFDE1504C0DF150300DF150200DC040300DF15FE3FE1AC
:201FA00017FEBFE0170280103400D01017FEBFE01502C01015FD3FE0062300003401000482
:201FC000045D0F8417FDBFE0040340013A880910405440003A8885801700C01017FEBFE001
:201FE000170080101E15801834010004045D0F8417FDBFE0040340013A8809104054400098
:202000003A88858004028010170080100E0B00100403400117FD3FE1405440003A8807106A
:2020200034018000045D8F103A88871817FEBFE026028018C4FCBF000608000017FDBFE0D6
:202040004400801015FDBFE01718A0D03A88071017FDBFE02ED9BF183A88050004FFFFE643
:202060001702C0DF170100DF170000DC0403C0DE3A2800F804F6FFDE1509C0DF150800DF2F
:20208000040800DF15FD3FE115FE7FE115FFBFE1C4FFBF0015F9BFE044FBBF0015FABFE021
:2020A00015FB3FE0041660D117FD3FE1C041420015F8BFE017F8BFE01E05001017FD3FE16E
:2020C000C04A420015F8BFE04400800015FBBFE017F8BFE0262B001017F83FE1405B42007A
:2020E00015F9BFE017F9BFE00E03001017F9BFE015FABFE0062500000403400117F93FE163
:20210000405440003A88071034018000045D8F103A88851815FCBFE017FEFFE03400900096
:20212000C4FFBF103A70861817FCBFE01502C01017FBBFE01E05001017FC3FE180F841005C
:2021400015FABFE017FABFE01610001017F8BFE0170380102608001017F8BFE017038010FD
:2021600017FFFFE117FEBFE117FD7FE117FC3FE13AE83E10060100003A88050015FABFE021
:202180000602000044FBBF0015FABFE017FABFE00E09001017F93FE1001D4200C0F4410030
:2021A0003A88071017FABFE03AC8850015008018C4FFBF000601000017F9BFE03A8837E051
:2021C0001701C0DF170000DF0402C0DE3A2800F804FCFFDE1503C0DF150200DF150100DCD8
:2021E000040200DF15FE3FE117FEBFE0D00080101E11001034010004045D0F8417FEBFE093
:20220000040340013A880910405440003A888580040280101500001034010004045D0F8418
:2022200017FEBFE0040340013A880910405440003A888580150000103A88010004FFFFE65C
:202240001702C0DF170100DF170000DC0403C0DE3A2800F804FAFFDE150500DF040500DF21
:2022600015FF3FE13A30050015FCBFE017FCFFE084FFBF003A7084183A70011017FCBFE024
:2022800015FBBFE017FFBFE015FDBFE017FDBFE01700801017FDFFE01701C0181501C01006
:2022A00017FDBFE01701801017FDFFE01700C0181500C01017FDBFE017FDFFE01501C01070
:2022C00017FDBFE017FDFFE01500C01017FBBFE015FEBFE017FEBFE03A7001103A880100DE
:2022E0003A8837E0170000DF0401C0DE3A2800F804FBFFDE1504C0DF150300DF040300DFA1
:20230000171BA0D015FDBFE017D9A5D04400801015D9A5D0062E000017FDBFE01700801040
:2023200015FEBFE017FDBFE003048010CC3F80102604001017D9A5D01E02001017FDBFE084
:202340000504001017FDBFE01702801017D9E5D0361D801817FDBFE003048010CC3F801093
:202360001E19001017FDBFE01703801017FDFFE01705C0183A8809183AE83E1015FFBFE0CC
:2023800017FFBFE01E03001017FD3FE140254200060D000017FDBFE01702C01017FFBFE018
:2023A0003A88871817FDBFE01502C01017FDBFE01702C01017D9A5D02E03801817FDBFE0A5
:2023C0004400C0000504C01017FEBFE015FDBFE017FDFFE0041BA0D01ECFBF183A880100B2
:2023E0003A8801003A8837E01701C0DF170000DF0402C0DE3A2800F804FFFFDE150000DFC2
:202400003A8839D8FA7001003A8801003A8837E0170000DF0401C0DE3A2800F804FAFFDE14
:202420001505C0DF150400DF040400DF15FE3FE115FF7FE117FFBFE01700801015FCBFE051
:2024400017FE3FE1409242004400801015FDBFE0060D000017FCBFE01702801017FDFFE04D
:202460003A880D1817FE7FE13A880910007642001E02001017FCBFE00607000017FCBFE0CC
:202480001700801015FCBFE017FCFFE017FFBFE01EF0BF183A8805003A8837E01701C0DF02
:2024A000170000DF0402C0DE3A2800F804FBFFDE1504C0DF150300DF040300DF15FF3FE183
:2024C0001714A0D015FDBFE00631000017FDBFE0170280103A8809104092420015FEBFE07C
:2024E00017FDBFE01702C01017FEBFE0C4FFBF103A88851803008010CC3F80101C208010A1
:2025000004E0BF10D80B80101E03001017FEBFE0C4FFBF1015FEBFE017FEBFE017FFFFE0C3
:202520003A88851803008010CC3F80101C20801004E0BF10E00B80101E08001017FEBFE02A
:2025400017FFFFE03A88851803008010CC3F80101C20801004E0BF101E0A001017FDBFE08F
:202560001702801017FEFFE03A880D1817FF7FE13A880910007642001E02001017FDBFE0EB
:202580000607000017FDBFE01700801015FDBFE017FDFFE00414A0D01ECCBF183A88050020
:2025A0003A8837E01701C0DF170000DF0402C0DE3A2800F804FAFFDE1505C0DF150400DF0B
:2025C000150300DC040400DF15FE3FE104FABF0015FDBFE015FC3FE0061D000034010004F3
:2025E000045D0F8417FCBFE0040340013A880910405440003A888580170080101E11001091
:2026000034010004045D0F8417FCBFE0040340013A880910405440003A88858017FEFFE029
:202620001500C0101718E0D017FCBFE00E02801817FCBFE01518A0D017FCBFE015FDBFE0CA
:202640000606000017FCBFE04400801015FCBFE017FCBFE0100880101EE03F1017FDBFE0DE
:2026600004FFFFE61702C0DF170100DF170000DC0403C0DE3A2800F804FEFFDE150100DFFD
:20268000040100DF15FF3FE117FFBFE084FEBF102804C0101E1A0018BA90061034018000BB
:2026A00004AC89103A888518170080103A680010F0260400F026040000270400002704008F
:2026C00000270400F0260400F826040000270400F0260400F026040000270400F0260400EF
:2026E000F82604000027040000270400F026040044008000060300003A88050006010000AD
:202700003A8805003A8837E0170000DF0401C0DE3A2800F83A880B203A880F003A880D0099
:202720003A880900C19B420004FEFFDE3A880B00150000DC1501C0DF3A88212040AD4200AC
:202740003401800004E3901017000011170F8020260100103AE83E103A88098040C5420016
:20276000C400C0012E1980393AB044213A70C411260F0010030080200300C0281E15C01030
:2027800084FFBF31C4FFFF0106040000030080200300C028C4FFBF311E0EC0104400002157
:2027A000440040291EF9FF313A8805003A2800F81700C020170080281EEEBF1804FFBF3178
:2027C000040100210401402936F9BF391EE93F3006F53F003AC8C5103A2800F804FDFFDE7F
:2027E0001502C0DF150140DC150000DCC403C0003A8805202E4580193AB00629CC00C018C9
:202800001E44001804FC7F343AD122880401C028040140233A9120880402002B0402C022F5
:20282000040500840403802A040340223A88212C3A8811283A880F20170000411700C01FA8
:202840001700C06315000039170080531500C06F1500C05B1500804B0404C0180404C039D1
:20286000040400420404406B040400630404C05A040480520404404A1EEF3F1C4400C0896D
:202880003A910E38CC030031C400C0023A88C7113A88CB292E2100593A8813183A881128C1
:2028A0003A880F20170080420401404A04FFFF3915FFBF4A0401004236FAFF5904FF3F2135
:2028C000BAD00820CC008031440000213A8809213A8809213A8807193A880B292606003058
:2028E0003A888D190300C0294400C01844004029C5FFFF191EFBBF191702C0DF170140DC02
:20290000170000DC0403C0DE3A2800F83A88072006F23F003A88072006F13F003A880D2097
:2029200006EE3F00CC0080202620001007008020262000103A880520060200000700C010DF
:202940002618001844008010CC00C0101EFB3F181700C010F4BFFF01C4BFFF393A30CA00B8
:202960007420A0013A88C7190420A0313A7046193A7086191E090018040180101700C0107E
:202980003A88CB193A30C6003A70C6283A70861926F93F1806010000440080100700C01058
:2029A0001EFD3F183AC805113A2800F83A88052006E73F003A8805003A2800F804FAFFDE24
:2029C000150300DC3401000404E310841700C080150440DC1505C0DF175280183A88232004
:2029E000263700101701C010C4070001160EC0204400001A1E2200888400C0183A88C7188F
:202A00003A88C718150100123A88C710150040193A8805001705C0DF170440DC170300DC37
:202A20000406C0DE3A2800F834008000040080102626001004640001150040D9150180D9EA
:202A40001502C0D900000000170040D9170180D91702C0D9261D0010170000811501001062
:202A600044000002175240223A8807001500401215528020156200101563001026DE3F8834
:202A80003A88C9183A8809213A8809111522802144008001176240123A98CC303AB09249D0
:202AA000156240121542C021840000011ED23F89176300113AB08C211563801106CE3F009A
:202AC000045380181552801806C63F00C4FFBF0006D03F0004F5FFDE150900DF150640DD5B
:202AE000150380DC150AC0DF1508C0DD150780DD150500DD1504C0DC150240DC150100DCA0
:202B0000150000D93A88392844008004C4FF7F053401800004E39010170000121752004582
:202B20000452C044261C00A0170180A0C4FFFF15160D00B8440000143A8821843A88218449
:202B4000042040843A8863A43A8821A4261E00E017408080261C80E0C4FFFFBD04FF3F84DB
:202B600004FF7F8C1EF97FBD340080000400801026090010170180A01E300010170080A0A0
:202B8000263200103A8809A015008098000000001700009D1EE43FA0170AC0DF170900DFE1
:202BA0001708C0DD170780DD170640DD170500DD1704C0DC170380DC170240DC170100DC55
:202BC000040BC0DE3A2800F8170180A01700C080C4FFBF102614C0151500008026DE3F18CE
:202BE0003A98C895176280A0170180A53A708420260B0010176380A03A7088201E0C00200B
:202C000017004089170000D93AE83E18170180A01EBFBF151700809826CF3F1506BC3F000A
:202C20003AE83E1806F93F001501C0A506EB3F00170000893AE83E1806F43F00170080A0AB
:202C40003A8827A03A88291006B63F003A88050006FB3F0004FDFFDE150200DF040200DF35
:202C600015FF3FE13A88010017FFBFE015FEBFE017FEBFE02602001070F02A000601000079
:202C8000B0F02A0006FF3F002F6465762F6A7461675F7561727400002F6465762F6A7461EC
:202CA000675F7561727400002F6D6E742F686F73740000002F6465762F6E756C6C000000CF
:202CC0004300000000000000000000000000000000000000000000000000000000000000B1
:202CE0000000000000000000000000000000000000000000000000000000000000000000D4
:202D00000000000000000000000000000000000000000000000000000000000000000000B3
:202D2000000000000000000000000000000000000000000000000000000000000000000093
:202D4000000000000000000000000000000000000000000000000000000000000000000073
:2043800000000000000000000000000000000000000000000000000000000000982C040055
:2043A000000000005408040094070400F40704000000000000000000A4080400201005001A
:2043C0000A00000000000000000000000000000000000000000000000000000000000000D3
:2043E0000000000000000000000000000000000000000000000000000000000000000000BD
:2044000000000000000000000000000000000000000000000000000000000000000000009C
:2044200000000000000000000000000000000000000000000000000000000000000000007C
:2044400000000000000000000000000000000000000000000000000000000000000000005C
:2053E00000000000000000000000000000000000000000000000000000000000A82C0400D5
:20540000FC110400181304005C130400C8130400341404009C140400000000007043040043
:2054200070430400B42C0400000000000000000000000000E01804000000000000000000D5
:20544000000000004C3D040000000000000000004C3D040000000000000000004C3D0400A5
:2054600000000000000000000000000000000000000000000000000000000000000000002C
:2054800000000000000000000000000000000000000000000000000000000000000000000C
:2054A0000000000000000000000000000000000000000000000000000000000000000000EC
:2054C0000000000000000000000000000000000000000000000000000000000000000000CC
:2054E0000000000000000000000000000000000000000000000000000000000000000000AC
:2055000000000000000000000000000000000000000000000000000000000000000000008B
:2055200000000000000000000000000000000000000000000000000000000000000000006B
:2055400000000000000000000000000000000000000000000000000000000000000000004B
:2055600000000000000000000000000000000000000000000000000000000000000000002B
:2055800000000000000000000000000000000000000000000000000000000000000000000B
:2055A0000000000000000000000000000000000000000000000000000000000000000000EB
:2055C0000000000000000000E041040048420400B042040000000000000000000000000022
:2055E000000000000000000000000000000000000000000000000000C02C040000000000BB
:2056000000000000000000000000000000000000000000000000000000000000000000008A
:2056200000000000000000000000000000000000000000000000000000000000000000006A
:2056400000000000000000000000000000000000000000000000000000000000000000004A
:20566000000000000000000001000000000000000E33CDAB34126DE6ECDE05000B000000FD
:2056800000000000000000000000000000000000000000000000000000000000000000000A
:2056A0000000000000000000000000000000000000000000000000000000000000000000EA
:2056C0000000000000000000000000000000000000000000000000000000000000000000CA
:2056E0000000000000000000000000000000000000000000000000000000000000000000AA
:20570000000000000000000000000000000000000000000000000000000000000000000089
:20572000000000000000000000000000000000000000000000000000000000000000000069
:20574000000000000000000000000000000000000000000000000000000000000000000049
:20576000000000000000000000000000000000000000000000000000000000000000000029
:20578000000000000000000000000000000000000000000000000000000000000000000009
:2057A0000000000000000000000000000000000000000000000000000000000000000000E9
:2057C0000000000000000000000000000000000000000000000000000000000000000000C9
:2057E0000000000000000000000000000000000000000000000000000000000000000000A9
:20580000000000000000000000000000000000000000000000000000000000000000000088
:20582000000000000000000000000000000000000000000000000000000000000000000068
:20584000000000000000000000000000000000000000000000000000000000000000000048
:20586000000000000000000000000000000000000000000000000000000000000000000028
:20588000000000000000000000000000000000000000000000000000000000000000000008
:2058A0000000000000000000000000000000000000000000000000000000000000000000E8
:2058C0000000000000000000000000000000000000000000000000000000000000000000C8
:2058E0000000000000000000000000000000000000000000000000000000000000000000A8
:20590000000000000000000000000000000000000000000000000000000000000000000087
:20592000000000000000000000000000000000000000000000000000000000000000000067
:20594000000000000000000000000000000000000000000000000000000000000000000047
:20596000000000000000000000000000000000000000000000000000000000000000000027
:20598000000000000000000000000000000000000000000000000000000000000000000007
:2059A0000000000000000000000000000000000000000000000000000000000000000000E7
:2059C0000000000000000000000000000000000000000000000000000000000000000000C7
:2059E00000000000000000000000030000000200030100006F70656E0000000001000000EB
:205A0000636C6F7365000000030000007265616400000000030000007772697465000000A3
:205A2000030000006C7365656B0000000200000066737461740000006843040068430400CD
:205A40004C3D04004C3D0400FFFFFFFF00000000FFFFFFFF8443040084430400F43E040068
:205A6000F43E040000000000000000000000000000000000000000000000000000000000F0
:205A8000000000000000000000000000000000000000000000000000000000000000000006
:205AA0000000000000000000000000000000000000000000000000000000000000000000E6
:205AC0000000000000000000000000000000000000000000000000000000000000000000C6
:205AE0000000000000000000000000000000000000000000000000000000000000000000A6
:00000001FF
